:1000000012C02CC02BC02AC029C028C027C026C0BF
:1000100025C024C023C022C021C020C01FC01EC0D4
:100020001DC01CC01BC011241FBECFE5D4E0DEBF25
:10003000CDBF11E0A0E6B0E0ECE5F1E102C0059033
:100040000D92A837B107D9F711E0A8E7B1E001C0D8
:100050001D92A538B107E1F725D37FC8D1CFA0E025
:10006000B0E00BD8802D90E00895A0E0B0E0082E1D
:100070000CD80895BB9ABD9ABC9A0895C398C598A8
:10008000C4988230910549F08330910521F0813088
:10009000910539F404C0C39A0895C59A0895C49A85
:1000A000089504971CF0C39AC59AC49A0895BA9803
:1000B000C29AB998C19A0895A59AA498AC9AAD9A93
:1000C0000895841795071CF040E050E005C04617DE
:1000D000570714F041E050E0CA0108959C01892BB4
:1000E00039F080ED97E00197F1F721503040C9F7E2
:1000F0000895C39AC59AC49A84EF91E0EFDFC3983C
:10010000C598C49884EF91E0E9DF0895089521E04F
:1001100030E002C0220F331F6A95E2F78095909578
:100120008223932308950F931F93CF93DF93AD9A68
:1001300084E090E0D3DFAD98C0E0D0E081E090E0D3
:10014000CDDF83B364E070E090E0E1DF892B21F440
:100150002196CF31D10591F7AD9A85E88A95F1F7CF
:1001600000E010E0C7E0D0E0AD9885E88A95F1F7AF
:1001700083B364E070E090E0CADF892B69F081E02E
:1001800090E00C2E02C0880F991F0A94E2F7809528
:100190009095082319230AC081E090E00C2E02C03C
:1001A000880F991F0A94E2F7082B192BAD9A85E85E
:1001B0008A95F1F721978FEFCF3FD807A9F6AD9A2F
:1001C000C801DF91CF911F910F91089586B361E02F
:1001D00070E090E09CDF892B69F086B362E070E00C
:1001E00090E095DF892B19F083E090E0089582E09C
:1001F00090E0089586B362E070E090E088DF892B9C
:1002000019F081E090E0089584E090E008950F9364
:100210001F93CF93DF938C01EB01C398C598C498CB
:100220008AEF90E05BDFC398C598C49801501040F6
:10023000BAF0C398C598C4988DE790E04FDFC39893
:10024000C598C498B801CE0162DF892B11F0C39A1A
:1002500001C0C49A8AEF90E041DF015010404AF794
:10026000C398C598C4988EEE92E038DFDF91CF91A5
:100270001F910F91089540E020917E0130917F0100
:100280008217930709F441E081E0842790E0089504
:100290009DDFF4DE089547DFBC0188E090E0B7DF22
:1002A00084EC99E01BDFF7CFCF93DF93C0E0D0E081
:1002B0003ADFAC0161EE70E088EC90E002DF892B60
:1002C00041F4C398C598C498C39A88EC90E006DFBF
:1002D00007C0C398C598C498C49A88EC90E0FEDE25
:1002E000219681E0C53FD80719F78091620090916F
:1002F0006300C1DF892B29F01092830110928201E3
:1003000013C08091820190918301019690938301A3
:1003100080938201039744F010928301109282012E
:100320002FD288EE93E0DADEDF91CF9108950F931C
:100330001F93CF93DF938CD2892B91F083D2892B9B
:1003400049F024D284E690E0C9DEC3E0D0E000E0CA
:1003500010E013C012D2C2E0D0E000E010E00DC007
:1003600071D2892B29F4C0E0D0E001E010E005C093
:1003700007D2C1E0D0E000E010E0809180019091D0
:1003800081018C179D0709F004D2D0938101C0939D
:100390008001C801DF91CF911F910F91089527D659
:1003A000AA2797FDA095BA2FBC01CD0189D325E5D9
:1003B00039EA4AEA55E4D4D2DDD3CB016230710583
:1003C0001CF481E090E008956230710589F063309B
:1003D000710571F06430710519F480E090E00895C2
:1003E00020E030E06530710511F421E030E0C90112
:1003F00008958130910581F0823091051CF4892B9C
:1004000041F008958230910569F1039709F047C0E2
:1004100038C0C5DFD6D10895B0D1C1DF880F991F8C
:10042000880F991F880F991F9C01220F331F220FDD
:10043000331F820F931F52DEACD179DF892B79F104
:100440009FD1ADDF880F991F880F991F880F991FC3
:100450009C01220F331F220F331F820F931F3EDE9A
:1004600098D108958AD19BDF28EC30E0AC01429FFF
:10047000C001439F900D529F900D11242FDE89D112
:1004800008957ED18CDF28EC30E0AC01429FC001A2
:10049000439F900D529F900D112420DE7AD1089534
:1004A000EF92FF920F931F93CF93DF9378DFEC01CE
:1004B00000E010E00F2EF0EDEF2EF7E0FF2EF02D14
:1004C000CE01DCDD34DF892BD9F30F5F1F4F81E0D4
:1004D00090E004DE0E151F059CF361DFEC0189DF5F
:1004E00088EE93E09C01C29FC001C39F900DD29FF4
:1004F000900D11240F2EF4E6EF2EFF24F02DE80EC0
:10050000F91E00E010E0DCCF4ADFB8DD81E090E0CA
:1005100086D188EE93E0E2DD81E090E06DD188EE57
:1005200093E0DCDD82E090E07AD188EE93E0D6DDE6
:1005300082E090E061D188EE93E0D0DD84E090E04D
:100540006ED188EE93E0CADD84E090E055D188EE6C
:1005500093E0C4DD80E190E062D188EE93E0BEDDFF
:1005600080E190E049D188EE93E0B8DDCDCFCF9324
:10057000DF93DDDE892BE9F3D6DDAC0161EE70E0BF
:100580008CE890E09EDDAC01009721F0019709F026
:1005900040C033C08EE190E090937F0180937E0154
:1005A000C49AFDDE029714F0EBD001C0E6D0F7DE6E
:1005B000019622E330E0AC01429FC001439F900DC1
:1005C000529F900D112499230CF444C0EC01AFDE2E
:1005D000892B89F0A8DDAC0161EE70E08CE890E039
:1005E00070DD892B11F0D5D035C08AE090E076DD42
:1005F000219782F1ECCFCDD02DC08AE090E090938E
:100600007F0180937E01C39AC1D082E390E066DDD2
:1006100021C084E190E090937F0180937E01C59A90
:1006200068EC70E084EB90E04CDD009719F00197E6
:1006300081F405C0C49A81E090E0C3D00BC0C39A96
:10064000A8D08DE190E090937F0180937E012CDE15
:1006500001C099D080916200909163000CDE892BDB
:1006600009F097D080917E0190917F019093630073
:100670008093620084E190E031DDC398C598C4980E
:1006800078CF8FEF87BB84BB11BA899A8A9A85B3DA
:1006900085BB85B385BBEEDC0ADD0EDD8AE290E02A
:1006A000AAD40895CF93DF93ECDF49D04CD045D046
:1006B00048D0C3E0D0E0CE01E1DC8EEE92E00EDD6A
:1006C00021978FEFCF3FD807B1F7C398C598C4984B
:1006D00088EC90E003DDC398C598C49888EC90E05E
:1006E000FDDCC3E0D0E0D4DD84E690E0F7DCC39825
:1006F000C598C49882E390E0F1DC21978FEFCF3F5B
:10070000D80789F763DD8230910579F08330910550
:100710001CF4019769F407C08330910541F00497F8
:1007200039F4B9DD05C0F0DE03C021DF01C0B8DE59
:1007300080E090E0DF91CF910895A99A0895A9985B
:100740000895A89A0895A8980895C698C79A0895F4
:10075000C798C69A0895C698C7980895C79AC69A22
:100760000895AA98AB9A0895AB98AA9A0895AA9862
:10077000AB980895AB9AAA9A0895E7DFF5DF08953C
:10078000F0DFE6DF0895EDDFE0DF0895E1DFECDF85
:100790000895E1DFECDF0895CF93DF93EC01892B1F
:1007A00061F0E2DF8EE690E099DCE4DFD1DF8EE6F7
:1007B00090E094DCD3DF2197A1F7EBDFDF91CF91BD
:1007C0000895CF93DF93EC01892B91F0CADF8EE679
:1007D00090E084DCCFDF8AEF90E080DCB6DF8EE64D
:1007E00090E07CDCBBDF8AEF90E078DC219771F74A
:1007F000D0DFDF91CF910895CF93DF93EC01A8DF95
:10080000B3DF209729F08EE690E068DC2197D9F7D6
:10081000A5DFB0DFA0DFABDFDF91CF910895CF93ED
:10082000DF93EC0192DF9DDF209729F08EE690E0C8
:1008300055DC2197D9F79EDF91DF8DDF98DFDF91BF
:10084000CF91089580B365E070E090E060DC08959A
:1008500080B366E070E090E05ADC089508950F934D
:100860001F93CF93DF93889899231CF400E010E046
:100870001FC0EC0100E010E0919A82E08A95F1F748
:1008800082B360E070E090E042DC892B39F0C8016F
:10089000880F991F8C010F5F1F4F02C0000F111F9F
:1008A000919882E08A95F1F7219732F713FD186F3E
:1008B000C801DF91CF911F910F9108950F931F935E
:1008C000CF93DF938C017723CCF0EB01919881E0FB
:1008D00090E00C2E02C0880F991F0A94E2F79C0149
:1008E000202331238217930711F4909A01C0909826
:1008F000919A81E090E0F2DB219742F7DF91CF916E
:100900001F910F910895909A929863E070E08CE0A7
:1009100090E0D4DF83E090E0A2DF0895909A92986F
:1009200063E070E088E090E0C9DF929A0895889AC9
:10093000929863E070E080E090E0C0DF929A0895C2
:10094000F6DF089588E288BB81E58DB908958FB9F7
:10095000779BFECF08950895F5DF81E4F8DFFFCFA0
:10096000A8E1B0E0E5EBF4E059C369837A838B83B7
:100970009C832D833E834F8358878E01075F1F4FD3
:10098000B801CE01019673D281E1E82EF12CEC0E74
:10099000FD1EB701CE0105966AD239853230F8F0D6
:1009A0002989223010F4B70186C08A859A8989275F
:1009B0008A87343011F0323029F4321781F46CE632
:1009C00070E079C0243039F41D861E861F86188A8F
:1009D0001C861B8604C0223021F484E08987B8017C
:1009E0006AC06B857C858B899C89681B790B7C87A9
:1009F0006B872D853E854F8558898D899E89AF8966
:100A0000B88D281739074A075B0740F4220F331FB8
:100A1000441F551F615070407C876B87A12CB12CFF
:100A2000C12C10E4D12EEE24FF24870160E070E099
:100A3000281739074A075B0740F0EA28FB280C29EA
:100A40001D29281B390B4A0B5B0BD694C794B7940E
:100A5000A794220F331F441F551F6F5F7F4F6F31C5
:100A6000710531F7D801C7018F779070A070B07011
:100A700080349105A105B105B9F4E7FC15C0211535
:100A800031054105510581F080E490E0A0E0B0E03F
:100A9000E80EF91E0A1F1B1F80E89FEFAFEFBFEFA4
:100AA000E822F9220A231B23ED86FE860F87188B86
:100AB000BE01675F7F4FCB01FAD0EAE06896CAC2F9
:100AC000A8E0B0E0E5E6F5E0AAC29B01AC0183E056
:100AD0008983DA01C9018827B7FD83959927AA2759
:100AE000BB27B82E211531054105510519F482E0C7
:100AF000898339C08823A9F0203080E0380780E05E
:100B0000480780E8580729F460E070E080E09FEC37
:100B10002EC0EE24FF248701E21AF30A040B150B02
:100B200002C079018A018EE1C82ED12CDC82CB82F1
:100B3000ED82FE820F831887C801B7016BD0019741
:100B40001816190684F4082E04C0EE0CFF1C001FB2
:100B5000111F0A94D2F7ED82FE820F831887C81AFC
:100B6000D90ADC82CB82BA82CE010196A0D0E9E01C
:100B7000289671C2ACE0B0E0EFEBF5E057C26983B4
:100B80007A838B839C83BE016B5F7F4FCE0101967E
:100B90006ED18D818230A9F1823098F1843021F4B8
:100BA0008E81882359F40FC02F81388537FD29C0E5
:100BB0006E812F31310564F0662329F020E030E0AA
:100BC00040E050E822C02FEF3FEF4FEF5FE71DC03E
:100BD0008EE190E0821B930B29853A854B855C85DD
:100BE00004C056954795379527958A95D2F7662381
:100BF00061F050954095309521953F4F4F4F5F4F95
:100C000004C020E030E040E050E0CA01B901E2E079
:100C10002C9628C2EF92FF920F931F939B01AC0179
:100C2000203080E0380781E0480780E0580780F4F2
:100C30002F3F31054105510509F020F4EE24FF2432
:100C4000870119C068E0E62EF12C012D112D13C08B
:100C5000203080E0380780E0480781E0580730F412
:100C600090E1E92EF12C012D112D05C088E1E82E2F
:100C7000F12C012D112D80E290E0A0E0B0E08E1962
:100C80009F09A00BB10B04C0569547953795279542
:100C9000EA94D2F7F901EC58FF4F2081821B9109A9
:100CA000A109B1091F910F91FF90EF9008959F92B4
:100CB000AF92BF92CF92DF92EF92FF920F931F936A
:100CC000EE24FF248701FC01248135814681578170
:100CD00091808081823010F44061A2C0843009F498
:100CE0009BC0823029F420E030E040E050E005C0B5
:100CF000211531054105510519F4E0E0F0E092C0FD
:100D0000828193816FEF823896070CF05AC062E8B7
:100D10007FEF681B790B6A3171052CF020E030E021
:100D200040E050E02AC0AA24BB24650181E090E0A5
:100D3000A0E0B0E0062E04C0880F991FAA1FBB1FB9
:100D40000A94D2F70197A109B10982239323A4231E
:100D5000B5230097A105B10529F071E0A72EB12CAC
:100D6000C12CD12C04C056954795379527956A9587
:100D7000D2F72A293B294C295D29DA01C9018F774D
:100D80009070A070B07080349105A105B10539F460
:100D900027FF09C0205C3F4F4F4F5F4F04C0215CCD
:100DA0003F4F4F4F5F4F80E090E0203060E03607CC
:100DB00060E0460760E4560710F081E090E0FC0137
:100DC00023C08038910544F5FC01E158FF4FDA015A
:100DD000C9018F779070A070B07080349105A10523
:100DE000B10539F427FF09C0205C3F4F4F4F5F4FDB
:100DF00004C0215C3F4F4F4F5F4F57FF05C05695D2
:100E0000479537952795319687E0569547953795BD
:100E100027958A95D1F706C020E030E040E050E009
:100E2000EFEFF0E0E22EF32E942F9F77802F807863
:100E3000892B9E2F9795992797958F77082F092BA8
:100E40009E2F9695812F8078892B9794992497943B
:100E50008F77182F1929C801B7011F910F91FF90A3
:100E6000EF90DF90CF90BF90AF909F900895CF9379
:100E7000DF93FC01DB01208131819281492F4F7783
:100E800050E0991F9927991F8381E82FEE0FE92BD6
:100E90006E2F70E0881F8827881FED018983EE235D
:100EA00071F5211531054105510511F482E02FC07E
:100EB0006E577040FD017383628367E0220F331F1A
:100EC000441F551F6A95D1F783E08C930AC0220F07
:100ED000331F441F551FED018A819B8101979B831E
:100EE0008A832030E0E03E07E0E04E07E0E45E0762
:100EF00070F3ED012C833D834E835F8325C0EF3F6C
:100F000079F4211531054105510519F484E08C93DC
:100F10001BC044FF03C081E08C9311C01C920FC022
:100F20006F577040ED017B836A8383E08C9387E089
:100F3000220F331F441F551F8A95D1F75064FD01BE
:100F40002483358346835783DF91CF910895A0E0B2
:100F5000B0E0ECEAF7E062C0EC01688179818A8157
:100F60009B81611571058105910549F484E2A82EE4
:100F700089EDB82E8BE5C82E87E0D82E02C05B0124
:100F80006C01C601B5012DE133EF41E050E0A8D07E
:100F900027EA31E440E050E084D07B018C01C601B7
:100FA000B5012DE133EF41E050E09AD0CA01B9011B
:100FB00024E13BE040E050E074D0E61AF70A080B69
:100FC000190B17FF08C08FEF9FEFAFEFBFE7E80ED9
:100FD000F91E0A1F1B1FE882F9820A831B83C701BF
:100FE0009F77EAE0CDB7DEB735C0B1DF089584E77B
:100FF00091E0ADDF0895A0E0B0E08093740190939C
:101000007501A0937601B093770108952F923F92D6
:101010004F925F926F927F928F929F92AF92BF9208
:10102000CF92DF92EF92FF920F931F93CF93DF93B4
:10103000CDB7DEB7CA1BDB0B0FB6F894DEBF0FBE11
:10104000CDBF09942A88398848885F846E847D845E
:101050008C849B84AA84B984C884DF80EE80FD8060
:101060000C811B81AA81B981CE0FD11D0FB6F894D6
:10107000DEBF0FBECDBFED010895E199FECFBFBB2E
:10108000AEBBE09A11960DB20895E199FECFBFBBB9
:10109000AEBB0DBA11960FB6F894E29AE19A0FBE64
:1010A0000895629FD001739FF001829FE00DF11DB2
:1010B000649FE00DF11D929FF00D839FF00D749FD2
:1010C000F00D659FF00D9927729FB00DE11DF91F7E
:1010D000639FB00DE11DF91FBD01CF0111240895DB
:1010E00097FB092E05260ED057FD04D014D00AD048
:1010F000001C38F450954095309521953F4F4F4F47
:101100005F4F0895F6F790958095709561957F4FA4
:101110008F4F9F4F0895A1E21A2EAA1BBB1BFD0102
:101120000DC0AA1FBB1FEE1FFF1FA217B307E407C6
:10113000F50720F0A21BB30BE40BF50B661F771F1E
:10114000881F991F1A9469F76095709580959095FE
:0C1150009B01AC01BD01CF010895FFCF51
:10115C0001000100E100C800B4008C000000000098
:10116C000000000000010202030303030404040452
:10117C000404040405050505050505050505050517
:10118C0005050505060606060606060606060606F7
:10119C0006060606060606060606060606060606E3
:1011AC0006060606070707070707070707070707C7
:1011BC0007070707070707070707070707070707B3
:1011CC0007070707070707070707070707070707A3
:1011DC000707070707070707070707070707070793
:1011EC000707070708080808080808080808080877
:1011FC000808080808080808080808080808080863
:10120C000808080808080808080808080808080852
:10121C000808080808080808080808080808080842
:10122C000808080808080808080808080808080832
:10123C000808080808080808080808080808080822
:10124C000808080808080808080808080808080812
:10125C000808080808080808080808080808080802
:08126C00080808080100000059
:00000001FF
